{
  "_format": "hh-sol-artifact-1",
  "contractName": "Dividend",
  "sourceName": "contracts/Dividend.sol",
  "abi": [
    {
      "inputs": [],
      "stateMutability": "nonpayable",
      "type": "constructor"
    },
    {
      "anonymous": false,
      "inputs": [
        {
          "indexed": true,
          "internalType": "address",
          "name": "previousOwner",
          "type": "address"
        },
        {
          "indexed": true,
          "internalType": "address",
          "name": "newOwner",
          "type": "address"
        }
      ],
      "name": "OwnershipTransferred",
      "type": "event"
    },
    {
      "inputs": [
        {
          "internalType": "address",
          "name": "token",
          "type": "address"
        },
        {
          "components": [
            {
              "internalType": "address",
              "name": "to",
              "type": "address"
            },
            {
              "internalType": "uint256",
              "name": "amount",
              "type": "uint256"
            }
          ],
          "internalType": "struct Dividend.TransferItem[]",
          "name": "items",
          "type": "tuple[]"
        }
      ],
      "name": "distribute",
      "outputs": [],
      "stateMutability": "nonpayable",
      "type": "function"
    },
    {
      "inputs": [],
      "name": "owner",
      "outputs": [
        {
          "internalType": "address",
          "name": "",
          "type": "address"
        }
      ],
      "stateMutability": "view",
      "type": "function"
    },
    {
      "inputs": [],
      "name": "renounceOwnership",
      "outputs": [],
      "stateMutability": "nonpayable",
      "type": "function"
    },
    {
      "inputs": [
        {
          "internalType": "address",
          "name": "newOwner",
          "type": "address"
        }
      ],
      "name": "transferOwnership",
      "outputs": [],
      "stateMutability": "nonpayable",
      "type": "function"
    }
  ],
  "bytecode": "0x608060405234801561001057600080fd5b5061002d61002261003260201b60201c565b61003a60201b60201c565b6100fe565b600033905090565b60008060009054906101000a900473ffffffffffffffffffffffffffffffffffffffff169050816000806101000a81548173ffffffffffffffffffffffffffffffffffffffff021916908373ffffffffffffffffffffffffffffffffffffffff1602179055508173ffffffffffffffffffffffffffffffffffffffff168173ffffffffffffffffffffffffffffffffffffffff167f8be0079c531659141344cd1fd0a4f28419497f9722a3daafe3b4186f6b6457e060405160405180910390a35050565b610b2f8061010d6000396000f3fe608060405234801561001057600080fd5b506004361061004c5760003560e01c8063715018a6146100515780638da5cb5b1461005b578063adda9eec14610079578063f2fde38b14610095575b600080fd5b6100596100b1565b005b6100636100c5565b60405161007091906104ef565b60405180910390f35b610093600480360381019061008e919061072e565b6100ee565b005b6100af60048036038101906100aa919061078a565b6102e1565b005b6100b9610364565b6100c360006103e2565b565b60008060009054906101000a900473ffffffffffffffffffffffffffffffffffffffff16905090565b6100f6610364565b6000805b825181101561014257828181518110610116576101156107b7565b5b6020026020010151602001518261012d9190610815565b9150808061013a90610849565b9150506100fa565b508273ffffffffffffffffffffffffffffffffffffffff166370a08231306040518263ffffffff1660e01b815260040161017c91906104ef565b602060405180830381865afa158015610199573d6000803e3d6000fd5b505050506040513d601f19601f820116820180604052508101906101bd91906108a6565b8111156101ff576040517f08c379a00000000000000000000000000000000000000000000000000000000081526004016101f690610930565b60405180910390fd5b60005b82518110156102db578373ffffffffffffffffffffffffffffffffffffffff166323b872dd3385848151811061023b5761023a6107b7565b5b60200260200101516000015186858151811061025a576102596107b7565b5b6020026020010151602001516040518463ffffffff1660e01b81526004016102849392919061095f565b6020604051808303816000875af11580156102a3573d6000803e3d6000fd5b505050506040513d601f19601f820116820180604052508101906102c791906109ce565b5080806102d390610849565b915050610202565b50505050565b6102e9610364565b600073ffffffffffffffffffffffffffffffffffffffff168173ffffffffffffffffffffffffffffffffffffffff1603610358576040517f08c379a000000000000000000000000000000000000000000000000000000000815260040161034f90610a6d565b60405180910390fd5b610361816103e2565b50565b61036c6104a6565b73ffffffffffffffffffffffffffffffffffffffff1661038a6100c5565b73ffffffffffffffffffffffffffffffffffffffff16146103e0576040517f08c379a00000000000000000000000000000000000000000000000000000000081526004016103d790610ad9565b60405180910390fd5b565b60008060009054906101000a900473ffffffffffffffffffffffffffffffffffffffff169050816000806101000a81548173ffffffffffffffffffffffffffffffffffffffff021916908373ffffffffffffffffffffffffffffffffffffffff1602179055508173ffffffffffffffffffffffffffffffffffffffff168173ffffffffffffffffffffffffffffffffffffffff167f8be0079c531659141344cd1fd0a4f28419497f9722a3daafe3b4186f6b6457e060405160405180910390a35050565b600033905090565b600073ffffffffffffffffffffffffffffffffffffffff82169050919050565b60006104d9826104ae565b9050919050565b6104e9816104ce565b82525050565b600060208201905061050460008301846104e0565b92915050565b6000604051905090565b600080fd5b600080fd5b610527816104ce565b811461053257600080fd5b50565b6000813590506105448161051e565b92915050565b600080fd5b6000601f19601f8301169050919050565b7f4e487b7100000000000000000000000000000000000000000000000000000000600052604160045260246000fd5b6105988261054f565b810181811067ffffffffffffffff821117156105b7576105b6610560565b5b80604052505050565b60006105ca61050a565b90506105d6828261058f565b919050565b600067ffffffffffffffff8211156105f6576105f5610560565b5b602082029050602081019050919050565b600080fd5b600080fd5b6000819050919050565b61062481610611565b811461062f57600080fd5b50565b6000813590506106418161061b565b92915050565b60006040828403121561065d5761065c61060c565b5b61066760406105c0565b9050600061067784828501610535565b600083015250602061068b84828501610632565b60208301525092915050565b60006106aa6106a5846105db565b6105c0565b905080838252602082019050604084028301858111156106cd576106cc610607565b5b835b818110156106f657806106e28882610647565b8452602084019350506040810190506106cf565b5050509392505050565b600082601f8301126107155761071461054a565b5b8135610725848260208601610697565b91505092915050565b6000806040838503121561074557610744610514565b5b600061075385828601610535565b925050602083013567ffffffffffffffff81111561077457610773610519565b5b61078085828601610700565b9150509250929050565b6000602082840312156107a05761079f610514565b5b60006107ae84828501610535565b91505092915050565b7f4e487b7100000000000000000000000000000000000000000000000000000000600052603260045260246000fd5b7f4e487b7100000000000000000000000000000000000000000000000000000000600052601160045260246000fd5b600061082082610611565b915061082b83610611565b9250828201905080821115610843576108426107e6565b5b92915050565b600061085482610611565b91507fffffffffffffffffffffffffffffffffffffffffffffffffffffffffffffffff8203610886576108856107e6565b5b600182019050919050565b6000815190506108a08161061b565b92915050565b6000602082840312156108bc576108bb610514565b5b60006108ca84828501610891565b91505092915050565b600082825260208201905092915050565b7f4e6f7420656e6f75676820746f6b656e73000000000000000000000000000000600082015250565b600061091a6011836108d3565b9150610925826108e4565b602082019050919050565b600060208201905081810360008301526109498161090d565b9050919050565b61095981610611565b82525050565b600060608201905061097460008301866104e0565b61098160208301856104e0565b61098e6040830184610950565b949350505050565b60008115159050919050565b6109ab81610996565b81146109b657600080fd5b50565b6000815190506109c8816109a2565b92915050565b6000602082840312156109e4576109e3610514565b5b60006109f2848285016109b9565b91505092915050565b7f4f776e61626c653a206e6577206f776e657220697320746865207a65726f206160008201527f6464726573730000000000000000000000000000000000000000000000000000602082015250565b6000610a576026836108d3565b9150610a62826109fb565b604082019050919050565b60006020820190508181036000830152610a8681610a4a565b9050919050565b7f4f776e61626c653a2063616c6c6572206973206e6f7420746865206f776e6572600082015250565b6000610ac36020836108d3565b9150610ace82610a8d565b602082019050919050565b60006020820190508181036000830152610af281610ab6565b905091905056fea26469706673582212206e8a42d8cf419cd7cbd870669ef9c34bfcdce78481bdaeb1d80a147dce50167964736f6c63430008120033",
  "linkReferences": {},
  "deployedLinkReferences": {}
}