{
  "_format": "hh-sol-artifact-1",
  "contractName": "CurrencyTransferLib",
  "sourceName": "@thirdweb-dev/contracts/lib/CurrencyTransferLib.sol",
  "abi": [
    {
      "inputs": [],
      "name": "NATIVE_TOKEN",
      "outputs": [
        {
          "internalType": "address",
          "name": "",
          "type": "address"
        }
      ],
      "stateMutability": "view",
      "type": "function"
    }
  ],
  "bytecode": "0x60f6610052600b82828239805160001a607314610045577f4e487b7100000000000000000000000000000000000000000000000000000000600052600060045260246000fd5b30600052607381538281f3fe730000000000000000000000000000000000000000301460806040526004361060335760003560e01c806331f7d964146038575b600080fd5b603e6052565b6040516049919060a7565b60405180910390f35b73eeeeeeeeeeeeeeeeeeeeeeeeeeeeeeeeeeeeeeee81565b600073ffffffffffffffffffffffffffffffffffffffff82169050919050565b6000609382606a565b9050919050565b60a181608a565b82525050565b600060208201905060ba6000830184609a565b9291505056fea26469706673582212208744c9da35fd0735d66395455adca7dad081a872424619a9c626e932dcada17c64736f6c63430008120033",
  "linkReferences": {},
  "deployedLinkReferences": {}
}